{
  "contractName": "Lottery",
  "abi": [
    {
      "inputs": [],
      "stateMutability": "nonpayable",
      "type": "constructor"
    },
    {
      "anonymous": false,
      "inputs": [
        {
          "indexed": false,
          "internalType": "string",
          "name": "message",
          "type": "string"
        }
      ],
      "name": "DisplayWinner",
      "type": "event"
    },
    {
      "anonymous": false,
      "inputs": [
        {
          "indexed": false,
          "internalType": "string",
          "name": "message",
          "type": "string"
        }
      ],
      "name": "JackPotWinner",
      "type": "event"
    },
    {
      "anonymous": false,
      "inputs": [
        {
          "indexed": false,
          "internalType": "string",
          "name": "message",
          "type": "string"
        }
      ],
      "name": "NewPlayerEnrolled",
      "type": "event"
    },
    {
      "inputs": [],
      "name": "owner",
      "outputs": [
        {
          "internalType": "address",
          "name": "",
          "type": "address"
        }
      ],
      "stateMutability": "view",
      "type": "function",
      "constant": true
    },
    {
      "inputs": [
        {
          "internalType": "uint256",
          "name": "",
          "type": "uint256"
        }
      ],
      "name": "players",
      "outputs": [
        {
          "internalType": "address",
          "name": "",
          "type": "address"
        }
      ],
      "stateMutability": "view",
      "type": "function",
      "constant": true
    },
    {
      "inputs": [
        {
          "internalType": "uint256",
          "name": "newOdds",
          "type": "uint256"
        }
      ],
      "name": "setJackPotOdds",
      "outputs": [],
      "stateMutability": "nonpayable",
      "type": "function"
    },
    {
      "inputs": [],
      "name": "getJackPot",
      "outputs": [
        {
          "internalType": "uint256",
          "name": "",
          "type": "uint256"
        }
      ],
      "stateMutability": "view",
      "type": "function",
      "constant": true
    },
    {
      "inputs": [],
      "name": "getPrizePool",
      "outputs": [
        {
          "internalType": "uint256",
          "name": "",
          "type": "uint256"
        }
      ],
      "stateMutability": "view",
      "type": "function",
      "constant": true
    },
    {
      "inputs": [],
      "name": "getMaximumPrizePool",
      "outputs": [
        {
          "internalType": "uint256",
          "name": "",
          "type": "uint256"
        }
      ],
      "stateMutability": "view",
      "type": "function",
      "constant": true
    },
    {
      "inputs": [],
      "name": "getBalance",
      "outputs": [
        {
          "internalType": "uint256",
          "name": "",
          "type": "uint256"
        }
      ],
      "stateMutability": "view",
      "type": "function",
      "constant": true
    },
    {
      "inputs": [
        {
          "internalType": "string",
          "name": "playerName",
          "type": "string"
        }
      ],
      "name": "enroleInLottery",
      "outputs": [],
      "stateMutability": "payable",
      "type": "function",
      "payable": true
    },
    {
      "inputs": [],
      "name": "getParticipants",
      "outputs": [
        {
          "internalType": "address[]",
          "name": "",
          "type": "address[]"
        }
      ],
      "stateMutability": "view",
      "type": "function",
      "constant": true
    },
    {
      "inputs": [],
      "name": "getNumberOfParticipants",
      "outputs": [
        {
          "internalType": "uint256",
          "name": "",
          "type": "uint256"
        }
      ],
      "stateMutability": "view",
      "type": "function",
      "constant": true
    }
  ],
  "bytecode": "0x6080604052600a60015534801561001557600080fd5b50336000806101000a81548173ffffffffffffffffffffffffffffffffffffffff021916908373ffffffffffffffffffffffffffffffffffffffff160217905550611565806100656000396000f3fe6080604052600436106100915760003560e01c80639a1d4cc8116100595780639a1d4cc81461016b578063c4740b2714610196578063c80c28a2146101b2578063f1bd4c04146101dd578063f71d96cb1461020857610091565b806312065fe014610096578063301a913d146100c15780635aa68ac0146100ea578063884bf67c146101155780638da5cb5b14610140575b600080fd5b3480156100a257600080fd5b506100ab610245565b6040516100b89190610946565b60405180910390f35b3480156100cd57600080fd5b506100e860048036038101906100e391906109a1565b61024d565b005b3480156100f657600080fd5b506100ff610300565b60405161010c9190610abe565b60405180910390f35b34801561012157600080fd5b5061012a61038e565b6040516101379190610946565b60405180910390f35b34801561014c57600080fd5b50610155610398565b6040516101629190610aef565b60405180910390f35b34801561017757600080fd5b506101806103bc565b60405161018d9190610946565b60405180910390f35b6101b060048036038101906101ab9190610c50565b6103d3565b005b3480156101be57600080fd5b506101c76105c6565b6040516101d49190610946565b60405180910390f35b3480156101e957600080fd5b506101f26105d3565b6040516101ff9190610946565b60405180910390f35b34801561021457600080fd5b5061022f600480360381019061022a91906109a1565b6105dd565b60405161023c9190610aef565b60405180910390f35b600047905090565b60008054906101000a900473ffffffffffffffffffffffffffffffffffffffff1673ffffffffffffffffffffffffffffffffffffffff163373ffffffffffffffffffffffffffffffffffffffff16146102db576040517f08c379a00000000000000000000000000000000000000000000000000000000081526004016102d290610cf6565b60405180910390fd5b600081101580156102ed575060648111155b6102f657600080fd5b8060018190555050565b6060600580548060200260200160405190810160405280929190818152602001828054801561038457602002820191906000526020600020905b8160009054906101000a900473ffffffffffffffffffffffffffffffffffffffff1673ffffffffffffffffffffffffffffffffffffffff168152602001906001019080831161033a575b5050505050905090565b6000600254905090565b60008054906101000a900473ffffffffffffffffffffffffffffffffffffffff1681565b60006003546002546103ce9190610d45565b905090565b670de0b6b3a764000034146103e757600080fd5b60008151116103f557600080fd5b600a6005805490501061040757600080fd5b80600460003373ffffffffffffffffffffffffffffffffffffffff1673ffffffffffffffffffffffffffffffffffffffff16815260200190815260200160002090816104539190610f90565b506005339080600181540180825580915050600190039060005260206000200160009091909190916101000a81548173ffffffffffffffffffffffffffffffffffffffff021916908373ffffffffffffffffffffffffffffffffffffffff1602179055506064605a346104c69190611062565b6104d091906110d3565b600260008282546104e19190610d45565b9250508190555060646009346104f79190611062565b61050191906110d3565b600360008282546105129190610d45565b925050819055507f818c367cde5ecd3b75571b220c33e69a7a2dd9a0ae7d1e8ab7f3411875cce60b600460003373ffffffffffffffffffffffffffffffffffffffff1673ffffffffffffffffffffffffffffffffffffffff16815260200190815260200160002060405160200161058991906111de565b6040516020818303038152906040526040516105a59190611263565b60405180910390a1600a600580549050036105c3576105c261061c565b5b50565b6000600580549050905090565b6000600354905090565b600581815481106105ed57600080fd5b906000526020600020016000915054906101000a900473ffffffffffffffffffffffffffffffffffffffff1681565b600a60058054905014610664576040517f08c379a000000000000000000000000000000000000000000000000000000000815260040161065b906112f7565b60405180910390fd5b6000600580549050905060004442604051602001610683929190611338565b6040516020818303038152906040528051906020012060001c9050600082826106ac9190611364565b90506000600582815481106106c4576106c3611395565b5b9060005260206000200160009054906101000a900473ffffffffffffffffffffffffffffffffffffffff1690506106fa8161077d565b7fa5dece3ce1047ef157f9737692ee17e5663498cfa5cca6ecf4b133387dadbbc8600460008373ffffffffffffffffffffffffffffffffffffffff1673ffffffffffffffffffffffffffffffffffffffff1681526020019081526020016000206040516107679190611448565b60405180910390a161077761088e565b50505050565b6107856108a6565b15610842576003546002600082825461079e9190610d45565b9250508190555060006003819055507f1193011a96250b45850cbae7192e45ce0ac04d2db0e6cb2e0d23c07093917797600460008373ffffffffffffffffffffffffffffffffffffffff1673ffffffffffffffffffffffffffffffffffffffff16815260200190815260200160002060405160200161081d9190611502565b6040516020818303038152906040526040516108399190611263565b60405180910390a15b8073ffffffffffffffffffffffffffffffffffffffff166108fc6002549081150290604051600060405180830381858888f1935050505015801561088a573d6000803e3d6000fd5b5050565b6000600281905550600560006108a491906108ef565b565b60008044426040516020016108bc929190611338565b6040516020818303038152906040528051906020012060001c90506001546064826108e79190611364565b111591505090565b508054600082559060005260206000209081019061090d9190610910565b50565b5b80821115610929576000816000905550600101610911565b5090565b6000819050919050565b6109408161092d565b82525050565b600060208201905061095b6000830184610937565b92915050565b6000604051905090565b600080fd5b600080fd5b61097e8161092d565b811461098957600080fd5b50565b60008135905061099b81610975565b92915050565b6000602082840312156109b7576109b661096b565b5b60006109c58482850161098c565b91505092915050565b600081519050919050565b600082825260208201905092915050565b6000819050602082019050919050565b600073ffffffffffffffffffffffffffffffffffffffff82169050919050565b6000610a25826109fa565b9050919050565b610a3581610a1a565b82525050565b6000610a478383610a2c565b60208301905092915050565b6000602082019050919050565b6000610a6b826109ce565b610a7581856109d9565b9350610a80836109ea565b8060005b83811015610ab1578151610a988882610a3b565b9750610aa383610a53565b925050600181019050610a84565b5085935050505092915050565b60006020820190508181036000830152610ad88184610a60565b905092915050565b610ae981610a1a565b82525050565b6000602082019050610b046000830184610ae0565b92915050565b600080fd5b600080fd5b6000601f19601f8301169050919050565b7f4e487b7100000000000000000000000000000000000000000000000000000000600052604160045260246000fd5b610b5d82610b14565b810181811067ffffffffffffffff82111715610b7c57610b7b610b25565b5b80604052505050565b6000610b8f610961565b9050610b9b8282610b54565b919050565b600067ffffffffffffffff821115610bbb57610bba610b25565b5b610bc482610b14565b9050602081019050919050565b82818337600083830152505050565b6000610bf3610bee84610ba0565b610b85565b905082815260208101848484011115610c0f57610c0e610b0f565b5b610c1a848285610bd1565b509392505050565b600082601f830112610c3757610c36610b0a565b5b8135610c47848260208601610be0565b91505092915050565b600060208284031215610c6657610c6561096b565b5b600082013567ffffffffffffffff811115610c8457610c83610970565b5b610c9084828501610c22565b91505092915050565b600082825260208201905092915050565b7f466f6e6374696f6e207265736572766572206175206f776e6572000000000000600082015250565b6000610ce0601a83610c99565b9150610ceb82610caa565b602082019050919050565b60006020820190508181036000830152610d0f81610cd3565b9050919050565b7f4e487b7100000000000000000000000000000000000000000000000000000000600052601160045260246000fd5b6000610d508261092d565b9150610d5b8361092d565b9250828201905080821115610d7357610d72610d16565b5b92915050565b600081519050919050565b7f4e487b7100000000000000000000000000000000000000000000000000000000600052602260045260246000fd5b60006002820490506001821680610dcb57607f821691505b602082108103610dde57610ddd610d84565b5b50919050565b60008190508160005260206000209050919050565b60006020601f8301049050919050565b600082821b905092915050565b600060088302610e467fffffffffffffffffffffffffffffffffffffffffffffffffffffffffffffffff82610e09565b610e508683610e09565b95508019841693508086168417925050509392505050565b6000819050919050565b6000610e8d610e88610e838461092d565b610e68565b61092d565b9050919050565b6000819050919050565b610ea783610e72565b610ebb610eb382610e94565b848454610e16565b825550505050565b600090565b610ed0610ec3565b610edb818484610e9e565b505050565b5b81811015610eff57610ef4600082610ec8565b600181019050610ee1565b5050565b601f821115610f4457610f1581610de4565b610f1e84610df9565b81016020851015610f2d578190505b610f41610f3985610df9565b830182610ee0565b50505b505050565b600082821c905092915050565b6000610f6760001984600802610f49565b1980831691505092915050565b6000610f808383610f56565b9150826002028217905092915050565b610f9982610d79565b67ffffffffffffffff811115610fb257610fb1610b25565b5b610fbc8254610db3565b610fc7828285610f03565b600060209050601f831160018114610ffa5760008415610fe8578287015190505b610ff28582610f74565b86555061105a565b601f19841661100886610de4565b60005b828110156110305784890151825560018201915060208501945060208101905061100b565b8683101561104d5784890151611049601f891682610f56565b8355505b6001600288020188555050505b505050505050565b600061106d8261092d565b91506110788361092d565b92508282026110868161092d565b9150828204841483151761109d5761109c610d16565b5b5092915050565b7f4e487b7100000000000000000000000000000000000000000000000000000000600052601260045260246000fd5b60006110de8261092d565b91506110e98361092d565b9250826110f9576110f86110a4565b5b828204905092915050565b600081905092915050565b6000815461111c81610db3565b6111268186611104565b94506001821660008114611141576001811461115657611189565b60ff1983168652811515820286019350611189565b61115f85610de4565b60005b8381101561118157815481890152600182019150602081019050611162565b838801955050505b50505092915050565b7f2068617320656e726f6c6c656421212120476f6f64206c75636b210000000000600082015250565b60006111c8601b83611104565b91506111d382611192565b601b82019050919050565b60006111ea828461110f565b91506111f5826111bb565b915081905092915050565b60005b8381101561121e578082015181840152602081019050611203565b60008484015250505050565b600061123582610d79565b61123f8185610c99565b935061124f818560208601611200565b61125881610b14565b840191505092915050565b6000602082019050818103600083015261127d818461122a565b905092915050565b7f576520646f206e6f742068617665203130207061727469636970616e7473207960008201527f6574200000000000000000000000000000000000000000000000000000000000602082015250565b60006112e1602383610c99565b91506112ec82611285565b604082019050919050565b60006020820190508181036000830152611310816112d4565b9050919050565b6000819050919050565b61133261132d8261092d565b611317565b82525050565b60006113448285611321565b6020820191506113548284611321565b6020820191508190509392505050565b600061136f8261092d565b915061137a8361092d565b92508261138a576113896110a4565b5b828206905092915050565b7f4e487b7100000000000000000000000000000000000000000000000000000000600052603260045260246000fd5b600081546113d181610db3565b6113db8186610c99565b945060018216600081146113f6576001811461140c5761143f565b60ff19831686528115156020028601935061143f565b61141585610de4565b60005b8381101561143757815481890152600182019150602081019050611418565b808801955050505b50505092915050565b6000602082019050818103600083015261146281846113c4565b905092915050565b7f436f6e67726174756c6174696f6e20746f3a2000000000000000000000000000600082015250565b60006114a0601383611104565b91506114ab8261146a565b601382019050919050565b7f20796f7520776f6e20746865204a41434b504f54212121212100000000000000600082015250565b60006114ec601983611104565b91506114f7826114b6565b601982019050919050565b600061150d82611493565b9150611519828461110f565b9150611524826114df565b91508190509291505056fea2646970667358221220847d9591f7bdc92668fb9bd8b3000b909e45fa2289873787135a6d5b567f434f64736f6c63430008130033",
  "immutableReferences": {},
  "source": "// SPDX-License-Identifier: MIT\r\npragma solidity 0.8.19;\r\n\r\n\r\ncontract Lottery {\r\n    address public owner;\r\n    uint256 private jackPotOdds = 10;\r\n    uint256 private prizePool;\r\n    uint256 private jackPot;\r\n    mapping(address => string) player;\r\n    address[] public players;\r\n\r\n    event NewPlayerEnrolled(string message);    \r\n    event DisplayWinner(string message);\r\n    event JackPotWinner(string message);\r\n\r\n    constructor(){   \r\n        owner = msg.sender;\r\n    }\r\n\r\n    modifier onlyOwner() {\r\n        require(msg.sender == owner, \"Fonction reserver au owner\");\r\n        _;\r\n    }\r\n    \r\n    function setJackPotOdds(uint256 newOdds) public onlyOwner {   \r\n        require(newOdds >= 0 && newOdds <= 100);     \r\n        jackPotOdds = newOdds;\r\n    }\r\n    \r\n    function getJackPot() public view returns (uint) {\r\n        return jackPot;\r\n    }\r\n\r\n    function getPrizePool() public view returns (uint) {\r\n        return prizePool;\r\n    }\r\n\r\n    function getMaximumPrizePool() public view returns (uint256) {\r\n        return prizePool + jackPot;\r\n    }\r\n\r\n    function getBalance() public view returns (uint) {\r\n        return address(this).balance;\r\n    }\r\n\r\n    function enroleInLottery(string memory playerName) public payable {\r\n       require(msg.value == 1 ether);\r\n       require(bytes(playerName).length > 0);\r\n       require(players.length < 10);\r\n        \r\n        player[msg.sender] = playerName;\r\n        players.push(msg.sender);\r\n\r\n        // On garde 9% pour un jackpot potentiel 1 chance sur 10 de frapp le bonus\r\n        prizePool += (msg.value * 90) / 100; \r\n        jackPot += (msg.value * 9) / 100;       \r\n\r\n        emit NewPlayerEnrolled(string(abi.encodePacked(player[msg.sender], \" has enrolled!!! Good luck!\")));\r\n\r\n        if(players.length == 10){\r\n            getAWinner();\r\n        }\r\n    }\r\n\r\n    function getParticipants() public view returns(address[] memory){\r\n        return players;\r\n    }\r\n\r\n    function getNumberOfParticipants() public view returns(uint){\r\n        return players.length;\r\n    }\r\n\r\n    function getAWinner() private {                \r\n        require(players.length == 10, \"We do not have 10 participants yet \");\r\n\r\n        uint nbOfPlayers = players.length;\r\n        uint randomHash = uint(keccak256(abi.encodePacked(block.difficulty, block.timestamp)));\r\n        uint winnerIndex = randomHash % nbOfPlayers;\r\n    \r\n        address winner = players[winnerIndex];   \r\n\r\n        sendPrize(winner);        \r\n\r\n        emit DisplayWinner(player[winner]);\r\n        \r\n        resetState();\r\n    }    \r\n\r\n    function isJackPotWon() private view returns (bool){\r\n        uint randomHash = uint(keccak256(abi.encodePacked(block.difficulty, block.timestamp)));\r\n        return (randomHash % 100) <= jackPotOdds;\r\n    }\r\n\r\n    function sendPrize(address winner) private {\r\n        if(isJackPotWon())\r\n        {\r\n            prizePool += jackPot;\r\n            jackPot = 0;\r\n            emit JackPotWinner(string(abi.encodePacked(\"Congratulation to: \", player[winner], \" you won the JACKPOT!!!!!\")));\r\n        }\r\n       \r\n        payable(winner).transfer(prizePool);\r\n    }\r\n\r\n    function resetState() private {\r\n        prizePool = 0;\r\n        delete players;\r\n    }\r\n}",
  "sourcePath": "/app/contracts/Lottery.sol",
  "compiler": {
    "name": "solc",
    "version": "0.8.19+commit.7dd6d404.Emscripten.clang"
  },
  "schemaVersion": "3.4.16",
  "updatedAt": "2024-11-21T02:47:16.512Z",
  "networkType": "ethereum",
  "devdoc": {
    "kind": "dev",
    "methods": {},
    "version": 1
  },
  "userdoc": {
    "kind": "user",
    "methods": {},
    "version": 1
  }
}